{
  "_format": "hh-sol-artifact-1",
  "contractName": "DualStakingToken",
  "sourceName": "contracts/dual_token/DualStakingToken.sol",
  "abi": [
    {
      "inputs": [
        {
          "internalType": "address",
          "name": "_serviceRegistry",
          "type": "address"
        },
        {
          "internalType": "address",
          "name": "_secondToken",
          "type": "address"
        },
        {
          "internalType": "address",
          "name": "_stakingInstance",
          "type": "address"
        },
        {
          "internalType": "uint256",
          "name": "_stakeRatio",
          "type": "uint256"
        },
        {
          "internalType": "uint256",
          "name": "_rewardRatio",
          "type": "uint256"
        }
      ],
      "stateMutability": "nonpayable",
      "type": "constructor"
    },
    {
      "inputs": [
        {
          "internalType": "uint256",
          "name": "serviceId",
          "type": "uint256"
        }
      ],
      "name": "AlreadyStaked",
      "type": "error"
    },
    {
      "inputs": [],
      "name": "ReentrancyGuard",
      "type": "error"
    },
    {
      "inputs": [
        {
          "internalType": "address",
          "name": "sender",
          "type": "address"
        },
        {
          "internalType": "address",
          "name": "staker",
          "type": "address"
        }
      ],
      "name": "StakerOnly",
      "type": "error"
    },
    {
      "inputs": [
        {
          "internalType": "address",
          "name": "token",
          "type": "address"
        },
        {
          "internalType": "address",
          "name": "from",
          "type": "address"
        },
        {
          "internalType": "address",
          "name": "to",
          "type": "address"
        },
        {
          "internalType": "uint256",
          "name": "value",
          "type": "uint256"
        }
      ],
      "name": "TokenTransferFailed",
      "type": "error"
    },
    {
      "inputs": [
        {
          "internalType": "uint256",
          "name": "serviceId",
          "type": "uint256"
        },
        {
          "internalType": "enum IStaking.StakingState",
          "name": "state",
          "type": "uint8"
        }
      ],
      "name": "WrongStakingState",
      "type": "error"
    },
    {
      "inputs": [],
      "name": "ZeroAddress",
      "type": "error"
    },
    {
      "inputs": [],
      "name": "ZeroValue",
      "type": "error"
    },
    {
      "anonymous": false,
      "inputs": [
        {
          "indexed": true,
          "internalType": "uint256",
          "name": "serviceId",
          "type": "uint256"
        },
        {
          "indexed": false,
          "internalType": "uint256",
          "name": "reward",
          "type": "uint256"
        }
      ],
      "name": "Claimed",
      "type": "event"
    },
    {
      "anonymous": false,
      "inputs": [
        {
          "indexed": true,
          "internalType": "address",
          "name": "sender",
          "type": "address"
        },
        {
          "indexed": false,
          "internalType": "uint256",
          "name": "amount",
          "type": "uint256"
        },
        {
          "indexed": false,
          "internalType": "uint256",
          "name": "balance",
          "type": "uint256"
        },
        {
          "indexed": false,
          "internalType": "uint256",
          "name": "availableRewards",
          "type": "uint256"
        }
      ],
      "name": "Deposit",
      "type": "event"
    },
    {
      "anonymous": false,
      "inputs": [
        {
          "indexed": true,
          "internalType": "uint256",
          "name": "serviceId",
          "type": "uint256"
        }
      ],
      "name": "Staked",
      "type": "event"
    },
    {
      "anonymous": false,
      "inputs": [
        {
          "indexed": true,
          "internalType": "uint256",
          "name": "serviceId",
          "type": "uint256"
        }
      ],
      "name": "Unstaked",
      "type": "event"
    },
    {
      "anonymous": false,
      "inputs": [
        {
          "indexed": true,
          "internalType": "address",
          "name": "to",
          "type": "address"
        },
        {
          "indexed": false,
          "internalType": "uint256",
          "name": "amount",
          "type": "uint256"
        }
      ],
      "name": "Withdraw",
      "type": "event"
    },
    {
      "inputs": [],
      "name": "checkpoint",
      "outputs": [],
      "stateMutability": "nonpayable",
      "type": "function"
    },
    {
      "inputs": [
        {
          "internalType": "uint256",
          "name": "serviceId",
          "type": "uint256"
        }
      ],
      "name": "claim",
      "outputs": [],
      "stateMutability": "nonpayable",
      "type": "function"
    },
    {
      "inputs": [
        {
          "internalType": "address",
          "name": "",
          "type": "address"
        }
      ],
      "name": "mapMutisigs",
      "outputs": [
        {
          "internalType": "bool",
          "name": "",
          "type": "bool"
        }
      ],
      "stateMutability": "view",
      "type": "function"
    },
    {
      "inputs": [
        {
          "internalType": "uint256",
          "name": "",
          "type": "uint256"
        }
      ],
      "name": "mapServiceIdStakers",
      "outputs": [
        {
          "internalType": "address",
          "name": "",
          "type": "address"
        }
      ],
      "stateMutability": "view",
      "type": "function"
    },
    {
      "inputs": [],
      "name": "numServices",
      "outputs": [
        {
          "internalType": "uint256",
          "name": "",
          "type": "uint256"
        }
      ],
      "stateMutability": "view",
      "type": "function"
    },
    {
      "inputs": [
        {
          "internalType": "address",
          "name": "",
          "type": "address"
        },
        {
          "internalType": "address",
          "name": "",
          "type": "address"
        },
        {
          "internalType": "uint256",
          "name": "",
          "type": "uint256"
        },
        {
          "internalType": "bytes",
          "name": "",
          "type": "bytes"
        }
      ],
      "name": "onERC721Received",
      "outputs": [
        {
          "internalType": "bytes4",
          "name": "",
          "type": "bytes4"
        }
      ],
      "stateMutability": "nonpayable",
      "type": "function"
    },
    {
      "inputs": [
        {
          "internalType": "uint256",
          "name": "serviceId",
          "type": "uint256"
        }
      ],
      "name": "restake",
      "outputs": [],
      "stateMutability": "nonpayable",
      "type": "function"
    },
    {
      "inputs": [],
      "name": "rewardRatio",
      "outputs": [
        {
          "internalType": "uint256",
          "name": "",
          "type": "uint256"
        }
      ],
      "stateMutability": "view",
      "type": "function"
    },
    {
      "inputs": [],
      "name": "secondToken",
      "outputs": [
        {
          "internalType": "address",
          "name": "",
          "type": "address"
        }
      ],
      "stateMutability": "view",
      "type": "function"
    },
    {
      "inputs": [],
      "name": "secondTokenAmount",
      "outputs": [
        {
          "internalType": "uint256",
          "name": "",
          "type": "uint256"
        }
      ],
      "stateMutability": "view",
      "type": "function"
    },
    {
      "inputs": [],
      "name": "serviceRegistry",
      "outputs": [
        {
          "internalType": "address",
          "name": "",
          "type": "address"
        }
      ],
      "stateMutability": "view",
      "type": "function"
    },
    {
      "inputs": [
        {
          "internalType": "uint256",
          "name": "serviceId",
          "type": "uint256"
        }
      ],
      "name": "stake",
      "outputs": [],
      "stateMutability": "nonpayable",
      "type": "function"
    },
    {
      "inputs": [],
      "name": "stakeRatio",
      "outputs": [
        {
          "internalType": "uint256",
          "name": "",
          "type": "uint256"
        }
      ],
      "stateMutability": "view",
      "type": "function"
    },
    {
      "inputs": [],
      "name": "stakingInstance",
      "outputs": [
        {
          "internalType": "address",
          "name": "",
          "type": "address"
        }
      ],
      "stateMutability": "view",
      "type": "function"
    },
    {
      "inputs": [
        {
          "internalType": "uint256",
          "name": "serviceId",
          "type": "uint256"
        }
      ],
      "name": "unstake",
      "outputs": [],
      "stateMutability": "nonpayable",
      "type": "function"
    }
  ],
  "bytecode": "0x61014060405260018055348015610014575f5ffd5b50604051611f6c380380611f6c833981016040819052610033916101f2565b6001600160a01b038516158061005057506001600160a01b038416155b8061006257506001600160a01b038316155b156100805760405163d92e233d60e01b815260040160405180910390fd5b81158061008b575080155b156100a957604051637c946ed760e01b815260040160405180910390fd5b6001600160a01b0380861660805284811660a052831660c08190526101008390526101208290526040805163160a717b60e21b815290515f9291635829c5ec9160048083019260209291908290030181865afa15801561010b573d5f5f3e3d5ffd5b505050506040513d601f19601f8201168201806040525081019061012f9190610244565b90505f846001600160a01b031663e77cdcc96040518163ffffffff1660e01b8152600401602060405180830381865afa15801561016e573d5f5f3e3d5ffd5b505050506040513d601f19601f820116820180604052508101906101929190610244565b9050670de0b6b3a7640000846101a984600161026f565b6101b39084610288565b6101bd9190610288565b6101c7919061029f565b60e052506102be95505050505050565b80516001600160a01b03811681146101ed575f5ffd5b919050565b5f5f5f5f5f60a08688031215610206575f5ffd5b61020f866101d7565b945061021d602087016101d7565b935061022b604087016101d7565b6060870151608090970151959894975095949392505050565b5f60208284031215610254575f5ffd5b5051919050565b634e487b7160e01b5f52601160045260245ffd5b808201808211156102825761028261025b565b92915050565b80820281158282048414176102825761028261025b565b5f826102b957634e487b7160e01b5f52601260045260245ffd5b500490565b60805160a05160c05160e0516101005161012051611bc66103a65f395f818161024a01526113a501525f6102a601525f81816103220152818161055701528181610beb01526113db01525f8181610167015281816105ac0152818161084501528181610cf101528181610da601528181610f3701528181611035015281816110f2015281816111a5015261126201525f81816101db01528181610bc80152818161131d015261143201525f81816102fb01528181610439015281816106ca015281816108fd01528181610aa601528181610c4a01528181610d2001526111210152611bc65ff3fe608060405234801561000f575f5ffd5b50600436106100f0575f3560e01c8063646033bc11610093578063bce1b52011610063578063bce1b520146102db578063c2c4c5c1146102ee578063cbcf252a146102f6578063cc6567251461031d575f5ffd5b8063646033bc1461024557806368ff20c81461026c5780638e00a8e8146102a1578063a694fc3a146102c8575f5ffd5b8063379607f5116100ce578063379607f5146101c35780633bfd49da146101d65780635ba19af4146101fd57806360d964c314610213575f5ffd5b8063150b7a02146100f457806326e86d95146101625780632e17de78146101ae575b5f5ffd5b61012c6101023660046116c2565b7f150b7a020000000000000000000000000000000000000000000000000000000095945050505050565b6040517fffffffff0000000000000000000000000000000000000000000000000000000090911681526020015b60405180910390f35b6101897f000000000000000000000000000000000000000000000000000000000000000081565b60405173ffffffffffffffffffffffffffffffffffffffff9091168152602001610159565b6101c16101bc36600461175b565b610344565b005b6101c16101d136600461175b565b610755565b6101897f000000000000000000000000000000000000000000000000000000000000000081565b6102055f5481565b604051908152602001610159565b610235610221366004611772565b60036020525f908152604090205460ff1681565b6040519015158152602001610159565b6102057f000000000000000000000000000000000000000000000000000000000000000081565b61018961027a36600461175b565b60026020525f908152604090205473ffffffffffffffffffffffffffffffffffffffff1681565b6102057f000000000000000000000000000000000000000000000000000000000000000081565b6101c16102d636600461175b565b6109d2565b6101c16102e936600461175b565b610e47565b6101c161121c565b6101897f000000000000000000000000000000000000000000000000000000000000000081565b6102057f000000000000000000000000000000000000000000000000000000000000000081565b600180541115610380576040517f8beb9d1600000000000000000000000000000000000000000000000000000000815260040160405180910390fd5b600260018190555f828152602091909152604090205473ffffffffffffffffffffffffffffffffffffffff16338114610408576040517f1728a1a900000000000000000000000000000000000000000000000000000000815233600482015273ffffffffffffffffffffffffffffffffffffffff821660248201526044015b60405180910390fd5b6040517f4236aff8000000000000000000000000000000000000000000000000000000008152600481018390525f907f000000000000000000000000000000000000000000000000000000000000000073ffffffffffffffffffffffffffffffffffffffff1690634236aff89060240160e060405180830381865afa158015610493573d5f5f3e3d5ffd5b505050506040513d601f19601f820116820180604052508101906104b791906117ac565b5050505f87815260026020908152604080832080547fffffffffffffffffffffffff000000000000000000000000000000000000000016905573ffffffffffffffffffffffffffffffffffffffff861683526003909152812080547fffffffffffffffffffffffffffffffffffffffffffffffffffffffffffffff00169055805493955092935082915061054c905083611872565b919050555061057b827f0000000000000000000000000000000000000000000000000000000000000000611318565b6040517f2e17de78000000000000000000000000000000000000000000000000000000008152600481018490525f907f000000000000000000000000000000000000000000000000000000000000000073ffffffffffffffffffffffffffffffffffffffff1690632e17de78906024016020604051808303815f875af1158015610607573d5f5f3e3d5ffd5b505050506040513d601f19601f8201168201806040525081019061062b91906118a6565b905080156106785761063d8282611397565b837fc83b5086ce94ec8d5a88a9f5fea4b18a522bb238ed0d2d8abd959549a80c16b88260405161066f91815260200190565b60405180910390a25b6040517f23b872dd00000000000000000000000000000000000000000000000000000000815230600482015273ffffffffffffffffffffffffffffffffffffffff8481166024830152604482018690527f000000000000000000000000000000000000000000000000000000000000000016906323b872dd906064015f604051808303815f87803b15801561070b575f5ffd5b505af115801561071d573d5f5f3e3d5ffd5b50506040518692507f11725367022c3ff288940f4b5473aa61c2da6a24af7363a1128ee2401e8983b291505f90a25050600180555050565b600180541115610791576040517f8beb9d1600000000000000000000000000000000000000000000000000000000815260040160405180910390fd5b600260018190555f828152602091909152604090205473ffffffffffffffffffffffffffffffffffffffff16338114610814576040517f1728a1a900000000000000000000000000000000000000000000000000000000815233600482015273ffffffffffffffffffffffffffffffffffffffff821660248201526044016103ff565b6040517f379607f5000000000000000000000000000000000000000000000000000000008152600481018390525f907f000000000000000000000000000000000000000000000000000000000000000073ffffffffffffffffffffffffffffffffffffffff169063379607f5906024016020604051808303815f875af11580156108a0573d5f5f3e3d5ffd5b505050506040513d601f19601f820116820180604052508101906108c491906118a6565b905080156109c9576040517f4236aff8000000000000000000000000000000000000000000000000000000008152600481018490525f907f000000000000000000000000000000000000000000000000000000000000000073ffffffffffffffffffffffffffffffffffffffff1690634236aff89060240160e060405180830381865afa158015610957573d5f5f3e3d5ffd5b505050506040513d601f19601f8201168201806040525081019061097b91906117ac565b505050505091505061098d8183611397565b837fc83b5086ce94ec8d5a88a9f5fea4b18a522bb238ed0d2d8abd959549a80c16b8836040516109bf91815260200190565b60405180910390a2505b50506001805550565b600180541115610a0e576040517f8beb9d1600000000000000000000000000000000000000000000000000000000815260040160405180910390fd5b600260018190555f828152602091909152604090205473ffffffffffffffffffffffffffffffffffffffff168015610a75576040517f7a5afbde000000000000000000000000000000000000000000000000000000008152600481018390526024016103ff565b6040517f4236aff8000000000000000000000000000000000000000000000000000000008152600481018390525f907f000000000000000000000000000000000000000000000000000000000000000073ffffffffffffffffffffffffffffffffffffffff1690634236aff89060240160e060405180830381865afa158015610b00573d5f5f3e3d5ffd5b505050506040513d601f19601f82011682018060405250810190610b2491906117ac565b5050505f87815260026020908152604080832080547fffffffffffffffffffffffff0000000000000000000000000000000000000000163317905573ffffffffffffffffffffffffffffffffffffffff861683526003909152812080547fffffffffffffffffffffffffffffffffffffffffffffffffffffffffffffff001660011790558054939550929350829150610bbe9050836118bd565b9190505550610c0f7f000000000000000000000000000000000000000000000000000000000000000033307f00000000000000000000000000000000000000000000000000000000000000006114dd565b6040517f42842e0e000000000000000000000000000000000000000000000000000000008152336004820152306024820152604481018490527f000000000000000000000000000000000000000000000000000000000000000073ffffffffffffffffffffffffffffffffffffffff16906342842e0e906064015f604051808303815f87803b158015610ca0575f5ffd5b505af1158015610cb2573d5f5f3e3d5ffd5b50506040517f095ea7b300000000000000000000000000000000000000000000000000000000815273ffffffffffffffffffffffffffffffffffffffff7f000000000000000000000000000000000000000000000000000000000000000081166004830152602482018790527f000000000000000000000000000000000000000000000000000000000000000016925063095ea7b391506044015f604051808303815f87803b158015610d63575f5ffd5b505af1158015610d75573d5f5f3e3d5ffd5b50506040517fa694fc3a000000000000000000000000000000000000000000000000000000008152600481018690527f000000000000000000000000000000000000000000000000000000000000000073ffffffffffffffffffffffffffffffffffffffff16925063a694fc3a91506024015f604051808303815f87803b158015610dfe575f5ffd5b505af1158015610e10573d5f5f3e3d5ffd5b50506040518592507feebbaa86c348cb664e392b180fd0ff2e1998af9fa833ef69a778cb0b42d3ca2791505f90a250506001805550565b600180541115610e83576040517f8beb9d1600000000000000000000000000000000000000000000000000000000815260040160405180910390fd5b600260018190555f828152602091909152604090205473ffffffffffffffffffffffffffffffffffffffff16338114610f06576040517f1728a1a900000000000000000000000000000000000000000000000000000000815233600482015273ffffffffffffffffffffffffffffffffffffffff821660248201526044016103ff565b6040517ffd0bba8c000000000000000000000000000000000000000000000000000000008152600481018390525f907f000000000000000000000000000000000000000000000000000000000000000073ffffffffffffffffffffffffffffffffffffffff169063fd0bba8c90602401602060405180830381865afa158015610f91573d5f5f3e3d5ffd5b505050506040513d601f19601f82011682018060405250810190610fb591906118f4565b90506002816002811115610fcb57610fcb611912565b146110065782816040517f1bcf512c0000000000000000000000000000000000000000000000000000000081526004016103ff92919061193f565b6040517f2e17de78000000000000000000000000000000000000000000000000000000008152600481018490527f000000000000000000000000000000000000000000000000000000000000000073ffffffffffffffffffffffffffffffffffffffff1690632e17de78906024016020604051808303815f875af1158015611090573d5f5f3e3d5ffd5b505050506040513d601f19601f820116820180604052508101906110b491906118a6565b506040517f095ea7b300000000000000000000000000000000000000000000000000000000815273ffffffffffffffffffffffffffffffffffffffff7f000000000000000000000000000000000000000000000000000000000000000081166004830152602482018590527f0000000000000000000000000000000000000000000000000000000000000000169063095ea7b3906044015f604051808303815f87803b158015611162575f5ffd5b505af1158015611174573d5f5f3e3d5ffd5b50506040517fa694fc3a000000000000000000000000000000000000000000000000000000008152600481018690527f000000000000000000000000000000000000000000000000000000000000000073ffffffffffffffffffffffffffffffffffffffff16925063a694fc3a91506024015f604051808303815f87803b1580156111fd575f5ffd5b505af115801561120f573d5f5f3e3d5ffd5b5050600180555050505050565b600180541115611258576040517f8beb9d1600000000000000000000000000000000000000000000000000000000815260040160405180910390fd5b60026001819055507f000000000000000000000000000000000000000000000000000000000000000073ffffffffffffffffffffffffffffffffffffffff1663c2c4c5c16040518163ffffffff1660e01b81526004015f604051808303815f875af11580156112c9573d5f5f3e3d5ffd5b505050506040513d5f823e601f3d9081017fffffffffffffffffffffffffffffffffffffffffffffffffffffffffffffffe016820160405261130e9190810190611a6f565b5050600180555050565b6113437f000000000000000000000000000000000000000000000000000000000000000083836115cc565b8173ffffffffffffffffffffffffffffffffffffffff167f884edad9ce6fa2440d8a54cc123490eb96d2768479d49ff9c7366125a94243648260405161138b91815260200190565b60405180910390a25050565b670de0b6b3a76400006113ca7f000000000000000000000000000000000000000000000000000000000000000083611b28565b6113d49190611b45565b90505f5f547f00000000000000000000000000000000000000000000000000000000000000006114049190611b28565b6040517f70a082310000000000000000000000000000000000000000000000000000000081523060048201527f000000000000000000000000000000000000000000000000000000000000000073ffffffffffffffffffffffffffffffffffffffff16906370a0823190602401602060405180830381865afa15801561148c573d5f5f3e3d5ffd5b505050506040513d601f19601f820116820180604052508101906114b091906118a6565b6114ba9190611b7d565b9050808211156114c8578091505b81156114d8576114d88383611318565b505050565b5f6040517f23b872dd000000000000000000000000000000000000000000000000000000005f5273ffffffffffffffffffffffffffffffffffffffff851660045273ffffffffffffffffffffffffffffffffffffffff84166024528260445260205f60645f5f8a5af13d15601f3d1160015f511416171691505f6060528060405250806115c5576040517fabae3d6d00000000000000000000000000000000000000000000000000000000815273ffffffffffffffffffffffffffffffffffffffff8087166004830152808616602483015284166044820152606481018390526084016103ff565b5050505050565b5f6040517fa9059cbb000000000000000000000000000000000000000000000000000000005f5273ffffffffffffffffffffffffffffffffffffffff84166004528260245260205f60445f5f895af13d15601f3d1160015f511416171691505f606052806040525080611698576040517fabae3d6d00000000000000000000000000000000000000000000000000000000815273ffffffffffffffffffffffffffffffffffffffff808616600483015230602483015284166044820152606481018390526084016103ff565b50505050565b73ffffffffffffffffffffffffffffffffffffffff811681146116bf575f5ffd5b50565b5f5f5f5f5f608086880312156116d6575f5ffd5b85356116e18161169e565b945060208601356116f18161169e565b935060408601359250606086013567ffffffffffffffff811115611713575f5ffd5b8601601f81018813611723575f5ffd5b803567ffffffffffffffff811115611739575f5ffd5b88602082840101111561174a575f5ffd5b959894975092955050506020019190565b5f6020828403121561176b575f5ffd5b5035919050565b5f60208284031215611782575f5ffd5b813561178d8161169e565b9392505050565b805163ffffffff811681146117a7575f5ffd5b919050565b5f5f5f5f5f5f5f60e0888a0312156117c2575f5ffd5b87516bffffffffffffffffffffffff811681146117dd575f5ffd5b60208901519097506117ee8161169e565b6040890151909650945061180460608901611794565b935061181260808901611794565b925061182060a08901611794565b915060c088015160ff81168114611835575f5ffd5b8091505092959891949750929550565b7f4e487b71000000000000000000000000000000000000000000000000000000005f52601160045260245ffd5b5f8161188057611880611845565b507fffffffffffffffffffffffffffffffffffffffffffffffffffffffffffffffff0190565b5f602082840312156118b6575f5ffd5b5051919050565b5f7fffffffffffffffffffffffffffffffffffffffffffffffffffffffffffffffff82036118ed576118ed611845565b5060010190565b5f60208284031215611904575f5ffd5b81516003811061178d575f5ffd5b7f4e487b71000000000000000000000000000000000000000000000000000000005f52602160045260245ffd5b828152604081016003831061197b577f4e487b71000000000000000000000000000000000000000000000000000000005f52602160045260245ffd5b8260208301529392505050565b7f4e487b71000000000000000000000000000000000000000000000000000000005f52604160045260245ffd5b5f82601f8301126119c4575f5ffd5b815167ffffffffffffffff8111156119de576119de611988565b8060051b6040517fffffffffffffffffffffffffffffffffffffffffffffffffffffffffffffffe0603f830116810181811067ffffffffffffffff82111715611a2957611a29611988565b604052918252602081850181019290810186841115611a46575f5ffd5b6020860192505b83831015611a65578251815260209283019201611a4d565b5095945050505050565b5f5f5f5f60808587031215611a82575f5ffd5b845167ffffffffffffffff811115611a98575f5ffd5b611aa4878288016119b5565b945050602085015167ffffffffffffffff811115611ac0575f5ffd5b611acc878288016119b5565b935050604085015167ffffffffffffffff811115611ae8575f5ffd5b611af4878288016119b5565b925050606085015167ffffffffffffffff811115611b10575f5ffd5b611b1c878288016119b5565b91505092959194509250565b8082028115828204841417611b3f57611b3f611845565b92915050565b5f82611b78577f4e487b71000000000000000000000000000000000000000000000000000000005f52601260045260245ffd5b500490565b81810381811115611b3f57611b3f61184556fea2646970667358221220e21b82de4c7c0978b8e18241747b14682c2d2fe47896b44f1735c5b90e59df7264736f6c634300081c0033",
  "linkReferences": {},
  "deployedLinkReferences": {}
}