{
  "_format": "hh-sol-artifact-1",
  "contractName": "RequesterActivityChecker",
  "sourceName": "contracts/mech_usage/RequesterActivityChecker.sol",
  "abi": [
    {
      "inputs": [
        {
          "internalType": "address",
          "name": "_mechMarketplace",
          "type": "address"
        },
        {
          "internalType": "uint256",
          "name": "_livenessRatio",
          "type": "uint256"
        }
      ],
      "stateMutability": "nonpayable",
      "type": "constructor"
    },
    {
      "inputs": [],
      "name": "ZeroAddress",
      "type": "error"
    },
    {
      "inputs": [],
      "name": "ZeroValue",
      "type": "error"
    },
    {
      "inputs": [
        {
          "internalType": "address",
          "name": "multisig",
          "type": "address"
        }
      ],
      "name": "getMultisigNonces",
      "outputs": [
        {
          "internalType": "uint256[]",
          "name": "nonces",
          "type": "uint256[]"
        }
      ],
      "stateMutability": "view",
      "type": "function"
    },
    {
      "inputs": [
        {
          "internalType": "uint256[]",
          "name": "curNonces",
          "type": "uint256[]"
        },
        {
          "internalType": "uint256[]",
          "name": "lastNonces",
          "type": "uint256[]"
        },
        {
          "internalType": "uint256",
          "name": "ts",
          "type": "uint256"
        }
      ],
      "name": "isRatioPass",
      "outputs": [
        {
          "internalType": "bool",
          "name": "ratioPass",
          "type": "bool"
        }
      ],
      "stateMutability": "view",
      "type": "function"
    },
    {
      "inputs": [],
      "name": "livenessRatio",
      "outputs": [
        {
          "internalType": "uint256",
          "name": "",
          "type": "uint256"
        }
      ],
      "stateMutability": "view",
      "type": "function"
    },
    {
      "inputs": [],
      "name": "mechMarketplace",
      "outputs": [
        {
          "internalType": "address",
          "name": "",
          "type": "address"
        }
      ],
      "stateMutability": "view",
      "type": "function"
    }
  ],
  "bytecode": "0x60c060405234801561000f575f5ffd5b506040516107ba3803806107ba83398101604081905261002e9161008b565b80805f0361004f57604051637c946ed760e01b815260040160405180910390fd5b6080526001600160a01b0382166100795760405163d92e233d60e01b815260040160405180910390fd5b506001600160a01b031660a0526100c2565b5f5f6040838503121561009c575f5ffd5b82516001600160a01b03811681146100b2575f5ffd5b6020939093015192949293505050565b60805160a0516106cb6100ef5f395f818160b0015261036501525f8181607b015261024701526106cb5ff3fe608060405234801561000f575f5ffd5b506004361061004a575f3560e01c8063184023a51461004e578063592cf3fb146100765780639c5e9590146100ab578063d564c4bf146100f7575b5f5ffd5b61006161005c3660046104d9565b610117565b60405190151581526020015b60405180910390f35b61009d7f000000000000000000000000000000000000000000000000000000000000000081565b60405190815260200161006d565b6100d27f000000000000000000000000000000000000000000000000000000000000000081565b60405173ffffffffffffffffffffffffffffffffffffffff909116815260200161006d565b61010a610105366004610547565b610276565b60405161006d919061057a565b5f5f821180156101585750825f81518110610134576101346105bc565b6020026020010151845f8151811061014e5761014e6105bc565b6020026020010151115b8015610197575082600181518110610172576101726105bc565b60200260200101518460018151811061018d5761018d6105bc565b6020026020010151115b1561026f575f835f815181106101af576101af6105bc565b6020026020010151855f815181106101c9576101c96105bc565b60200260200101516101db9190610616565b90505f846001815181106101f1576101f16105bc565b60200260200101518660018151811061020c5761020c6105bc565b602002602001015161021e9190610616565b905081811161026c575f8461023b83670de0b6b3a764000061062f565b6102459190610646565b7f000000000000000000000000000000000000000000000000000000000000000011159350505b50505b9392505050565b60408051600280825260608083018452926020830190803683370190505090508173ffffffffffffffffffffffffffffffffffffffff1663affed0e06040518163ffffffff1660e01b8152600401602060405180830381865afa1580156102df573d5f5f3e3d5ffd5b505050506040513d601f19601f82011682018060405250810190610303919061067e565b815f81518110610315576103156105bc565b60209081029190910101526040517f1bbbeeb800000000000000000000000000000000000000000000000000000000815273ffffffffffffffffffffffffffffffffffffffff83811660048301527f00000000000000000000000000000000000000000000000000000000000000001690631bbbeeb890602401602060405180830381865afa1580156103aa573d5f5f3e3d5ffd5b505050506040513d601f19601f820116820180604052508101906103ce919061067e565b816001815181106103e1576103e16105bc565b602002602001018181525050919050565b7f4e487b71000000000000000000000000000000000000000000000000000000005f52604160045260245ffd5b5f82601f83011261042e575f5ffd5b813567ffffffffffffffff811115610448576104486103f2565b8060051b6040517fffffffffffffffffffffffffffffffffffffffffffffffffffffffffffffffe0603f830116810181811067ffffffffffffffff82111715610493576104936103f2565b6040529182526020818501810192908101868411156104b0575f5ffd5b6020860192505b838310156104cf5782358152602092830192016104b7565b5095945050505050565b5f5f5f606084860312156104eb575f5ffd5b833567ffffffffffffffff811115610501575f5ffd5b61050d8682870161041f565b935050602084013567ffffffffffffffff811115610529575f5ffd5b6105358682870161041f565b93969395505050506040919091013590565b5f60208284031215610557575f5ffd5b813573ffffffffffffffffffffffffffffffffffffffff8116811461026f575f5ffd5b602080825282518282018190525f918401906040840190835b818110156105b1578351835260209384019390920191600101610593565b509095945050505050565b7f4e487b71000000000000000000000000000000000000000000000000000000005f52603260045260245ffd5b7f4e487b71000000000000000000000000000000000000000000000000000000005f52601160045260245ffd5b81810381811115610629576106296105e9565b92915050565b8082028115828204841417610629576106296105e9565b5f82610679577f4e487b71000000000000000000000000000000000000000000000000000000005f52601260045260245ffd5b500490565b5f6020828403121561068e575f5ffd5b505191905056fea264697066735822122023844da3d8b463761c485f902ffcf6202f362a91919fc98df7256a95cc20e09364736f6c634300081c0033",
  "linkReferences": {},
  "deployedLinkReferences": {}
}